{
  "_format": "hh-sol-artifact-1",
  "contractName": "FreeMarket",
  "sourceName": "contracts/FreeMarket.sol",
  "abi": [
    {
      "inputs": [],
      "stateMutability": "nonpayable",
      "type": "constructor"
    },
    {
      "anonymous": false,
      "inputs": [
        {
          "indexed": true,
          "internalType": "address",
          "name": "account",
          "type": "address"
        },
        {
          "indexed": true,
          "internalType": "address",
          "name": "operator",
          "type": "address"
        },
        {
          "indexed": false,
          "internalType": "bool",
          "name": "approved",
          "type": "bool"
        }
      ],
      "name": "ApprovalForAll",
      "type": "event"
    },
    {
      "anonymous": false,
      "inputs": [
        {
          "indexed": false,
          "internalType": "address",
          "name": "_seller",
          "type": "address"
        },
        {
          "indexed": false,
          "internalType": "uint16",
          "name": "_supply",
          "type": "uint16"
        },
        {
          "indexed": false,
          "internalType": "uint256",
          "name": "_price",
          "type": "uint256"
        },
        {
          "indexed": false,
          "internalType": "uint256",
          "name": "_merchandiseId",
          "type": "uint256"
        }
      ],
      "name": "MerchandiseAdded",
      "type": "event"
    },
    {
      "anonymous": false,
      "inputs": [
        {
          "indexed": true,
          "internalType": "address",
          "name": "previousOwner",
          "type": "address"
        },
        {
          "indexed": true,
          "internalType": "address",
          "name": "newOwner",
          "type": "address"
        }
      ],
      "name": "OwnershipTransferred",
      "type": "event"
    },
    {
      "anonymous": false,
      "inputs": [
        {
          "indexed": false,
          "internalType": "address",
          "name": "_seller",
          "type": "address"
        },
        {
          "indexed": false,
          "internalType": "address",
          "name": "_buyer",
          "type": "address"
        },
        {
          "indexed": false,
          "internalType": "uint16",
          "name": "_quantity",
          "type": "uint16"
        },
        {
          "indexed": false,
          "internalType": "uint256",
          "name": "_merchandiseId",
          "type": "uint256"
        }
      ],
      "name": "Transaction",
      "type": "event"
    },
    {
      "anonymous": false,
      "inputs": [
        {
          "indexed": true,
          "internalType": "address",
          "name": "operator",
          "type": "address"
        },
        {
          "indexed": true,
          "internalType": "address",
          "name": "from",
          "type": "address"
        },
        {
          "indexed": true,
          "internalType": "address",
          "name": "to",
          "type": "address"
        },
        {
          "indexed": false,
          "internalType": "uint256[]",
          "name": "ids",
          "type": "uint256[]"
        },
        {
          "indexed": false,
          "internalType": "uint256[]",
          "name": "values",
          "type": "uint256[]"
        }
      ],
      "name": "TransferBatch",
      "type": "event"
    },
    {
      "anonymous": false,
      "inputs": [
        {
          "indexed": true,
          "internalType": "address",
          "name": "operator",
          "type": "address"
        },
        {
          "indexed": true,
          "internalType": "address",
          "name": "from",
          "type": "address"
        },
        {
          "indexed": true,
          "internalType": "address",
          "name": "to",
          "type": "address"
        },
        {
          "indexed": false,
          "internalType": "uint256",
          "name": "id",
          "type": "uint256"
        },
        {
          "indexed": false,
          "internalType": "uint256",
          "name": "value",
          "type": "uint256"
        }
      ],
      "name": "TransferSingle",
      "type": "event"
    },
    {
      "anonymous": false,
      "inputs": [
        {
          "indexed": false,
          "internalType": "string",
          "name": "value",
          "type": "string"
        },
        {
          "indexed": true,
          "internalType": "uint256",
          "name": "id",
          "type": "uint256"
        }
      ],
      "name": "URI",
      "type": "event"
    },
    {
      "inputs": [
        {
          "internalType": "string",
          "name": "_merchandiseUri",
          "type": "string"
        },
        {
          "internalType": "uint16",
          "name": "_supply",
          "type": "uint16"
        },
        {
          "internalType": "uint256",
          "name": "_price",
          "type": "uint256"
        }
      ],
      "name": "addMerchandise",
      "outputs": [
        {
          "internalType": "uint256",
          "name": "",
          "type": "uint256"
        }
      ],
      "stateMutability": "nonpayable",
      "type": "function"
    },
    {
      "inputs": [
        {
          "internalType": "address",
          "name": "account",
          "type": "address"
        },
        {
          "internalType": "uint256",
          "name": "id",
          "type": "uint256"
        }
      ],
      "name": "balanceOf",
      "outputs": [
        {
          "internalType": "uint256",
          "name": "",
          "type": "uint256"
        }
      ],
      "stateMutability": "view",
      "type": "function"
    },
    {
      "inputs": [
        {
          "internalType": "address[]",
          "name": "accounts",
          "type": "address[]"
        },
        {
          "internalType": "uint256[]",
          "name": "ids",
          "type": "uint256[]"
        }
      ],
      "name": "balanceOfBatch",
      "outputs": [
        {
          "internalType": "uint256[]",
          "name": "",
          "type": "uint256[]"
        }
      ],
      "stateMutability": "view",
      "type": "function"
    },
    {
      "inputs": [],
      "name": "fetchMerchandiseAll",
      "outputs": [
        {
          "components": [
            {
              "internalType": "address",
              "name": "seller",
              "type": "address"
            },
            {
              "internalType": "uint16",
              "name": "supply",
              "type": "uint16"
            },
            {
              "internalType": "uint256",
              "name": "price",
              "type": "uint256"
            },
            {
              "internalType": "uint256",
              "name": "merchandiseId",
              "type": "uint256"
            },
            {
              "internalType": "string",
              "name": "uri",
              "type": "string"
            }
          ],
          "internalType": "struct FreeMarket.Merchandise[]",
          "name": "",
          "type": "tuple[]"
        }
      ],
      "stateMutability": "view",
      "type": "function"
    },
    {
      "inputs": [
        {
          "internalType": "address",
          "name": "_seller",
          "type": "address"
        }
      ],
      "name": "fetchMerchandiseFrom",
      "outputs": [
        {
          "components": [
            {
              "internalType": "address",
              "name": "seller",
              "type": "address"
            },
            {
              "internalType": "uint16",
              "name": "supply",
              "type": "uint16"
            },
            {
              "internalType": "uint256",
              "name": "price",
              "type": "uint256"
            },
            {
              "internalType": "uint256",
              "name": "merchandiseId",
              "type": "uint256"
            },
            {
              "internalType": "string",
              "name": "uri",
              "type": "string"
            }
          ],
          "internalType": "struct FreeMarket.Merchandise[]",
          "name": "",
          "type": "tuple[]"
        }
      ],
      "stateMutability": "view",
      "type": "function"
    },
    {
      "inputs": [
        {
          "internalType": "address",
          "name": "account",
          "type": "address"
        },
        {
          "internalType": "address",
          "name": "operator",
          "type": "address"
        }
      ],
      "name": "isApprovedForAll",
      "outputs": [
        {
          "internalType": "bool",
          "name": "",
          "type": "bool"
        }
      ],
      "stateMutability": "view",
      "type": "function"
    },
    {
      "inputs": [
        {
          "internalType": "address",
          "name": "",
          "type": "address"
        },
        {
          "internalType": "address",
          "name": "",
          "type": "address"
        },
        {
          "internalType": "uint256[]",
          "name": "",
          "type": "uint256[]"
        },
        {
          "internalType": "uint256[]",
          "name": "",
          "type": "uint256[]"
        },
        {
          "internalType": "bytes",
          "name": "",
          "type": "bytes"
        }
      ],
      "name": "onERC1155BatchReceived",
      "outputs": [
        {
          "internalType": "bytes4",
          "name": "",
          "type": "bytes4"
        }
      ],
      "stateMutability": "nonpayable",
      "type": "function"
    },
    {
      "inputs": [
        {
          "internalType": "address",
          "name": "",
          "type": "address"
        },
        {
          "internalType": "address",
          "name": "",
          "type": "address"
        },
        {
          "internalType": "uint256",
          "name": "",
          "type": "uint256"
        },
        {
          "internalType": "uint256",
          "name": "",
          "type": "uint256"
        },
        {
          "internalType": "bytes",
          "name": "",
          "type": "bytes"
        }
      ],
      "name": "onERC1155Received",
      "outputs": [
        {
          "internalType": "bytes4",
          "name": "",
          "type": "bytes4"
        }
      ],
      "stateMutability": "nonpayable",
      "type": "function"
    },
    {
      "inputs": [],
      "name": "owner",
      "outputs": [
        {
          "internalType": "address",
          "name": "",
          "type": "address"
        }
      ],
      "stateMutability": "view",
      "type": "function"
    },
    {
      "inputs": [
        {
          "internalType": "uint256",
          "name": "_merchandiseId",
          "type": "uint256"
        }
      ],
      "name": "removeMerchandise",
      "outputs": [],
      "stateMutability": "nonpayable",
      "type": "function"
    },
    {
      "inputs": [],
      "name": "renounceOwnership",
      "outputs": [],
      "stateMutability": "nonpayable",
      "type": "function"
    },
    {
      "inputs": [
        {
          "internalType": "address",
          "name": "from",
          "type": "address"
        },
        {
          "internalType": "address",
          "name": "to",
          "type": "address"
        },
        {
          "internalType": "uint256[]",
          "name": "ids",
          "type": "uint256[]"
        },
        {
          "internalType": "uint256[]",
          "name": "amounts",
          "type": "uint256[]"
        },
        {
          "internalType": "bytes",
          "name": "data",
          "type": "bytes"
        }
      ],
      "name": "safeBatchTransferFrom",
      "outputs": [],
      "stateMutability": "nonpayable",
      "type": "function"
    },
    {
      "inputs": [
        {
          "internalType": "address",
          "name": "from",
          "type": "address"
        },
        {
          "internalType": "address",
          "name": "to",
          "type": "address"
        },
        {
          "internalType": "uint256",
          "name": "id",
          "type": "uint256"
        },
        {
          "internalType": "uint256",
          "name": "amount",
          "type": "uint256"
        },
        {
          "internalType": "bytes",
          "name": "data",
          "type": "bytes"
        }
      ],
      "name": "safeTransferFrom",
      "outputs": [],
      "stateMutability": "nonpayable",
      "type": "function"
    },
    {
      "inputs": [
        {
          "internalType": "address",
          "name": "operator",
          "type": "address"
        },
        {
          "internalType": "bool",
          "name": "approved",
          "type": "bool"
        }
      ],
      "name": "setApprovalForAll",
      "outputs": [],
      "stateMutability": "nonpayable",
      "type": "function"
    },
    {
      "inputs": [
        {
          "internalType": "bytes4",
          "name": "interfaceId",
          "type": "bytes4"
        }
      ],
      "name": "supportsInterface",
      "outputs": [
        {
          "internalType": "bool",
          "name": "",
          "type": "bool"
        }
      ],
      "stateMutability": "view",
      "type": "function"
    },
    {
      "inputs": [
        {
          "internalType": "uint256",
          "name": "_merchandiseId",
          "type": "uint256"
        },
        {
          "internalType": "uint16",
          "name": "_quantity",
          "type": "uint16"
        }
      ],
      "name": "transactMerchandise",
      "outputs": [],
      "stateMutability": "payable",
      "type": "function"
    },
    {
      "inputs": [
        {
          "internalType": "address",
          "name": "newOwner",
          "type": "address"
        }
      ],
      "name": "transferOwnership",
      "outputs": [],
      "stateMutability": "nonpayable",
      "type": "function"
    },
    {
      "inputs": [
        {
          "internalType": "uint256",
          "name": "_merchandiseId",
          "type": "uint256"
        }
      ],
      "name": "uri",
      "outputs": [
        {
          "internalType": "string",
          "name": "",
          "type": "string"
        }
      ],
      "stateMutability": "view",
      "type": "function"
    }
  ],
  "bytecode": "0x60806040523480156200001157600080fd5b506040805160208101909152600081526200002c816200003e565b50620000383362000057565b6200018c565b805162000053906002906020840190620000a9565b5050565b600380546001600160a01b038381166001600160a01b0319831681179093556040519116919082907f8be0079c531659141344cd1fd0a4f28419497f9722a3daafe3b4186f6b6457e090600090a35050565b828054620000b7906200014f565b90600052602060002090601f016020900481019282620000db576000855562000126565b82601f10620000f657805160ff191683800117855562000126565b8280016001018555821562000126579182015b828111156200012657825182559160200191906001019062000109565b506200013492915062000138565b5090565b5b8082111562000134576000815560010162000139565b600181811c908216806200016457607f821691505b602082108114156200018657634e487b7160e01b600052602260045260246000fd5b50919050565b612644806200019c6000396000f3fe6080604052600436106101085760003560e01c8063715018a611610095578063bc197c8111610064578063bc197c81146102de578063e985e9c514610323578063f23a6e611461036c578063f242432a14610398578063f2fde38b146103b857600080fd5b8063715018a6146102615780637c30da32146102765780638da5cb5b14610296578063a22cb465146102be57600080fd5b80630e89341c116100dc5780630e89341c146101b25780632eb2c2d6146101df57806348419f17146102015780634e1273f4146102145780634f85aa8f1461024157600080fd5b8062fdd58e1461010d578063019e745c1461014057806301e90edd1461016d57806301ffc9a714610182575b600080fd5b34801561011957600080fd5b5061012d610128366004611f73565b6103d8565b6040519081526020015b60405180910390f35b34801561014c57600080fd5b5061016061015b366004611de4565b61046f565b6040516101379190612269565b34801561017957600080fd5b506101606106f7565b34801561018e57600080fd5b506101a261019d366004612067565b61091e565b6040519015158152602001610137565b3480156101be57600080fd5b506101d26101cd366004612107565b61092f565b604051610137919061234b565b3480156101eb57600080fd5b506101ff6101fa366004611e30565b6109d4565b005b6101ff61020f36600461211f565b610a6b565b34801561022057600080fd5b5061023461022f366004611f9c565b610ca5565b604051610137919061230a565b34801561024d57600080fd5b5061012d61025c36600461209f565b610e07565b34801561026d57600080fd5b506101ff610f35565b34801561028257600080fd5b506101ff610291366004612107565b610f9b565b3480156102a257600080fd5b506003546040516001600160a01b039091168152602001610137565b3480156102ca57600080fd5b506101ff6102d9366004611f39565b61115c565b3480156102ea57600080fd5b5061030a6102f9366004611e30565b63bc197c8160e01b95945050505050565b6040516001600160e01b03199091168152602001610137565b34801561032f57600080fd5b506101a261033e366004611dfe565b6001600160a01b03918216600090815260016020908152604080832093909416825291909152205460ff1690565b34801561037857600080fd5b5061030a610387366004611ed6565b63f23a6e6160e01b95945050505050565b3480156103a457600080fd5b506101ff6103b3366004611ed6565b611167565b3480156103c457600080fd5b506101ff6103d3366004611de4565b6111ee565b60006001600160a01b0383166104495760405162461bcd60e51b815260206004820152602b60248201527f455243313135353a2062616c616e636520717565727920666f7220746865207a60448201526a65726f206164647265737360a81b60648201526084015b60405180910390fd5b506000908152602081815260408083206001600160a01b03949094168352929052205490565b6060600061047c60045490565b905060008060005b838110156104e5576001600160a01b038616600660006104a5846001612459565b81526020810191909152604001600020546001600160a01b031614156104d3576104d08360016112b9565b92505b806104dd8161250f565b915050610484565b5060008267ffffffffffffffff81111561050f57634e487b7160e01b600052604160045260246000fd5b60405190808252806020026020018201604052801561054857816020015b610535611bba565b81526020019060019003908161052d5790505b50905060005b848110156106ed576001600160a01b0387166006600061056f846001612459565b81526020810191909152604001600020546001600160a01b031614156106db57600060068161059f846001612459565b8152602080820192909252604090810160009081206002908101548083526006855291839020835160a08101855281546001600160a01b0381168252600160a01b900461ffff16958101959095526001810154938501939093528201546060840152600382018054919450919291839160808401919061061e906124a7565b80601f016020809104026020016040519081016040528092919081815260200182805461064a906124a7565b80156106975780601f1061066c57610100808354040283529160200191610697565b820191906000526020600020905b81548152906001019060200180831161067a57829003601f168201915b5050505050815250508486815181106106c057634e487b7160e01b600052603260045260246000fd5b60200260200101819052506106d68560016112b9565b945050505b806106e58161250f565b91505061054e565b5095945050505050565b6060600061070460045490565b9050600061071c61071460045490565b6005546112cc565b90506000808267ffffffffffffffff81111561074857634e487b7160e01b600052604160045260246000fd5b60405190808252806020026020018201604052801561078157816020015b61076e611bba565b8152602001906001900390816107665790505b50905060005b84811015610915576006600061079e836001612459565b8152602001908152602001600020600201546000146109035760006006816107c7846001612459565b8152602080820192909252604090810160009081206002908101548083526006855291839020835160a08101855281546001600160a01b0381168252600160a01b900461ffff169581019590955260018101549385019390935282015460608401526003820180549194509192918391608084019190610846906124a7565b80601f0160208091040260200160405190810160405280929190818152602001828054610872906124a7565b80156108bf5780601f10610894576101008083540402835291602001916108bf565b820191906000526020600020905b8154815290600101906020018083116108a257829003601f168201915b5050505050815250508486815181106108e857634e487b7160e01b600052603260045260246000fd5b60200260200101819052506108fe8560016112b9565b945050505b8061090d8161250f565b915050610787565b50949350505050565b6000610929826112d8565b92915050565b600081815260066020526040902060030180546060919061094f906124a7565b80601f016020809104026020016040519081016040528092919081815260200182805461097b906124a7565b80156109c85780601f1061099d576101008083540402835291602001916109c8565b820191906000526020600020905b8154815290600101906020018083116109ab57829003601f168201915b50505050509050919050565b6001600160a01b0385163314806109f057506109f0853361033e565b610a575760405162461bcd60e51b815260206004820152603260248201527f455243313135353a207472616e736665722063616c6c6572206973206e6f74206044820152711bdddb995c881b9bdc88185c1c1c9bdd995960721b6064820152608401610440565b610a6485858585856112fd565b5050505050565b60008281526006602052604090205461ffff808316600160a01b909204161015610acd5760405162461bcd60e51b8152602060048201526013602482015272496e73756666696369656e7420737570706c7960681b6044820152606401610440565b600082815260066020526040902060010154610aee9061ffff831690612471565b3414610b345760405162461bcd60e51b8152602060048201526015602482015274496e76616c6964207061796d656e742076616c756560581b6044820152606401610440565b6000828152600660205260408082205490516001600160a01b039091169034908381818185875af1925050503d8060008114610b8c576040519150601f19603f3d011682016040523d82523d6000602084013e610b91565b606091505b5050905080610bd25760405162461bcd60e51b815260206004820152600d60248201526c2830bcb6b2b73a1032b93937b960991b6044820152606401610440565b610bf23033858561ffff16604051806020016040528060008152506114f6565b600083815260066020526040902054610c1a9061ffff600160a01b90910481169084166112cc565b600084815260066020908152604091829020805461ffff60a01b198116600160a01b61ffff9687160290811790925583516001600160a01b0391821691909216178152339181019190915291841690820152606081018490527f2cdce83894d8c0d45eb4c4cab2696f20b4768abc89e01b6d050beaa4f6fe7aef9060800160405180910390a1505050565b60608151835114610d0a5760405162461bcd60e51b815260206004820152602960248201527f455243313135353a206163636f756e747320616e6420696473206c656e677468604482015268040dad2e6dac2e8c6d60bb1b6064820152608401610440565b6000835167ffffffffffffffff811115610d3457634e487b7160e01b600052604160045260246000fd5b604051908082528060200260200182016040528015610d5d578160200160208202803683370190505b50905060005b8451811015610dff57610dc4858281518110610d8f57634e487b7160e01b600052603260045260246000fd5b6020026020010151858381518110610db757634e487b7160e01b600052603260045260246000fd5b60200260200101516103d8565b828281518110610de457634e487b7160e01b600052603260045260246000fd5b6020908102919091010152610df88161250f565b9050610d63565b509392505050565b6000610e17600480546001019055565b6000610e2260045490565b9050610e4330828661ffff166040518060200160405280600081525061161c565b610e4d818661171d565b6040805160a08101825233815261ffff808716602080840191825283850188815260608501878152608086018c815260008981526006855297909720865181549551909616600160a01b026001600160b01b03199095166001600160a01b039690961695909517939093178455516001840155905160028301559251805192939192610edf9260038501920190611bf6565b50506040805133815261ffff87166020820152908101859052606081018390527f3059b02ad9c03c6c61febd70c3e2fd8885a3b71c84ac4a288fb923c725c8a4c1915060800160405180910390a1949350505050565b6003546001600160a01b03163314610f8f5760405162461bcd60e51b815260206004820181905260248201527f4f776e61626c653a2063616c6c6572206973206e6f7420746865206f776e65726044820152606401610440565b610f9960006117a9565b565b600081815260066020908152604091829020825160a08101845281546001600160a01b0381168252600160a01b900461ffff169281019290925260018101549282019290925260028201546060820152600382018054919291608084019190611003906124a7565b80601f016020809104026020016040519081016040528092919081815260200182805461102f906124a7565b801561107c5780601f106110515761010080835404028352916020019161107c565b820191906000526020600020905b81548152906001019060200180831161105f57829003601f168201915b50505050508152505080600001516001600160a01b0316336001600160a01b0316146111105760405162461bcd60e51b815260206004820152603960248201527f4f6e6c7920746865206f776e6572206f6620746865206d65726368616e64697360448201527f652063616e20706572666f726d207468697320616374696f6e000000000000006064820152608401610440565b600082815260066020526040812080546001600160b01b03191681556001810182905560028101829055906111486003830182611c7a565b5050611158600580546001019055565b5050565b6111583383836117fb565b6001600160a01b0385163314806111835750611183853361033e565b6111e15760405162461bcd60e51b815260206004820152602960248201527f455243313135353a2063616c6c6572206973206e6f74206f776e6572206e6f7260448201526808185c1c1c9bdd995960ba1b6064820152608401610440565b610a6485858585856114f6565b6003546001600160a01b031633146112485760405162461bcd60e51b815260206004820181905260248201527f4f776e61626c653a2063616c6c6572206973206e6f7420746865206f776e65726044820152606401610440565b6001600160a01b0381166112ad5760405162461bcd60e51b815260206004820152602660248201527f4f776e61626c653a206e6577206f776e657220697320746865207a65726f206160448201526564647265737360d01b6064820152608401610440565b6112b6816117a9565b50565b60006112c58284612459565b9392505050565b60006112c58284612490565b60006001600160e01b03198216630271189760e51b14806109295750610929826118dc565b815183511461135f5760405162461bcd60e51b815260206004820152602860248201527f455243313135353a2069647320616e6420616d6f756e7473206c656e677468206044820152670dad2e6dac2e8c6d60c31b6064820152608401610440565b6001600160a01b0384166113855760405162461bcd60e51b8152600401610440906123a6565b3360005b84518110156114885760008582815181106113b457634e487b7160e01b600052603260045260246000fd5b6020026020010151905060008583815181106113e057634e487b7160e01b600052603260045260246000fd5b602090810291909101810151600084815280835260408082206001600160a01b038e1683529093529190912054909150818110156114305760405162461bcd60e51b8152600401610440906123eb565b6000838152602081815260408083206001600160a01b038e8116855292528083208585039055908b1682528120805484929061146d908490612459565b92505081905550505050806114819061250f565b9050611389565b50846001600160a01b0316866001600160a01b0316826001600160a01b03167f4a39dc06d4c0dbc64b70af90fd698a233a518aa5d07e595d983b8c0526c8f7fb87876040516114d892919061231d565b60405180910390a46114ee81878787878761192c565b505050505050565b6001600160a01b03841661151c5760405162461bcd60e51b8152600401610440906123a6565b3361153581878761152c88611a97565b610a6488611a97565b6000848152602081815260408083206001600160a01b038a168452909152902054838110156115765760405162461bcd60e51b8152600401610440906123eb565b6000858152602081815260408083206001600160a01b038b81168552925280832087850390559088168252812080548692906115b3908490612459565b909155505060408051868152602081018690526001600160a01b03808916928a821692918616917fc3d58168c5ae7397731d063d5bbf3d657854427343f4c083240f7aacaa2d0f62910160405180910390a4611613828888888888611af0565b50505050505050565b6001600160a01b03841661167c5760405162461bcd60e51b815260206004820152602160248201527f455243313135353a206d696e7420746f20746865207a65726f206164647265736044820152607360f81b6064820152608401610440565b3361168d8160008761152c88611a97565b6000848152602081815260408083206001600160a01b0389168452909152812080548592906116bd908490612459565b909155505060408051858152602081018590526001600160a01b0380881692600092918516917fc3d58168c5ae7397731d063d5bbf3d657854427343f4c083240f7aacaa2d0f62910160405180910390a4610a6481600087878787611af0565b60008281526006602052604090206003018054611739906124a7565b15905061177f5760405162461bcd60e51b815260206004820152601460248201527343616e6e6f74207365742075726920747769636560601b6044820152606401610440565b600082815260066020908152604090912082516117a492600390920191840190611bf6565b505050565b600380546001600160a01b038381166001600160a01b0319831681179093556040519116919082907f8be0079c531659141344cd1fd0a4f28419497f9722a3daafe3b4186f6b6457e090600090a35050565b816001600160a01b0316836001600160a01b0316141561186f5760405162461bcd60e51b815260206004820152602960248201527f455243313135353a2073657474696e6720617070726f76616c20737461747573604482015268103337b91039b2b63360b91b6064820152608401610440565b6001600160a01b03838116600081815260016020908152604080832094871680845294825291829020805460ff191686151590811790915591519182527f17307eab39ab6107e8899845ad3d59bd9653f200f220920489ca2b5937696c31910160405180910390a3505050565b60006001600160e01b03198216636cdb3d1360e11b148061190d57506001600160e01b031982166303a24d0760e21b145b8061092957506301ffc9a760e01b6001600160e01b0319831614610929565b6001600160a01b0384163b156114ee5760405163bc197c8160e01b81526001600160a01b0385169063bc197c819061197090899089908890889088906004016121c6565b602060405180830381600087803b15801561198a57600080fd5b505af19250505080156119ba575060408051601f3d908101601f191682019092526119b791810190612083565b60015b611a67576119c6612556565b806308c379a01415611a0057506119db61256e565b806119e65750611a02565b8060405162461bcd60e51b8152600401610440919061234b565b505b60405162461bcd60e51b815260206004820152603460248201527f455243313135353a207472616e7366657220746f206e6f6e20455243313135356044820152732932b1b2b4bb32b91034b6b83632b6b2b73a32b960611b6064820152608401610440565b6001600160e01b0319811663bc197c8160e01b146116135760405162461bcd60e51b81526004016104409061235e565b60408051600180825281830190925260609160009190602080830190803683370190505090508281600081518110611adf57634e487b7160e01b600052603260045260246000fd5b602090810291909101015292915050565b6001600160a01b0384163b156114ee5760405163f23a6e6160e01b81526001600160a01b0385169063f23a6e6190611b349089908990889088908890600401612224565b602060405180830381600087803b158015611b4e57600080fd5b505af1925050508015611b7e575060408051601f3d908101601f19168201909252611b7b91810190612083565b60015b611b8a576119c6612556565b6001600160e01b0319811663f23a6e6160e01b146116135760405162461bcd60e51b81526004016104409061235e565b6040518060a0016040528060006001600160a01b03168152602001600061ffff1681526020016000815260200160008152602001606081525090565b828054611c02906124a7565b90600052602060002090601f016020900481019282611c245760008555611c6a565b82601f10611c3d57805160ff1916838001178555611c6a565b82800160010185558215611c6a579182015b82811115611c6a578251825591602001919060010190611c4f565b50611c76929150611cb0565b5090565b508054611c86906124a7565b6000825580601f10611c96575050565b601f0160209004906000526020600020908101906112b691905b5b80821115611c765760008155600101611cb1565b600067ffffffffffffffff831115611cdf57611cdf612540565b604051611cf6601f8501601f1916602001826124e2565b809150838152848484011115611d0b57600080fd5b83836020830137600060208583010152509392505050565b80356001600160a01b0381168114611d3a57600080fd5b919050565b600082601f830112611d4f578081fd5b81356020611d5c82612435565b604051611d6982826124e2565b8381528281019150858301600585901b87018401881015611d88578586fd5b855b85811015611da657813584529284019290840190600101611d8a565b5090979650505050505050565b600082601f830112611dc3578081fd5b6112c583833560208501611cc5565b803561ffff81168114611d3a57600080fd5b600060208284031215611df5578081fd5b6112c582611d23565b60008060408385031215611e10578081fd5b611e1983611d23565b9150611e2760208401611d23565b90509250929050565b600080600080600060a08688031215611e47578081fd5b611e5086611d23565b9450611e5e60208701611d23565b9350604086013567ffffffffffffffff80821115611e7a578283fd5b611e8689838a01611d3f565b94506060880135915080821115611e9b578283fd5b611ea789838a01611d3f565b93506080880135915080821115611ebc578283fd5b50611ec988828901611db3565b9150509295509295909350565b600080600080600060a08688031215611eed578081fd5b611ef686611d23565b9450611f0460208701611d23565b93506040860135925060608601359150608086013567ffffffffffffffff811115611f2d578182fd5b611ec988828901611db3565b60008060408385031215611f4b578182fd5b611f5483611d23565b915060208301358015158114611f68578182fd5b809150509250929050565b60008060408385031215611f85578182fd5b611f8e83611d23565b946020939093013593505050565b60008060408385031215611fae578182fd5b823567ffffffffffffffff80821115611fc5578384fd5b818501915085601f830112611fd8578384fd5b81356020611fe582612435565b604051611ff282826124e2565b8381528281019150858301600585901b870184018b1015612011578889fd5b8896505b8487101561203a5761202681611d23565b835260019690960195918301918301612015565b5096505086013592505080821115612050578283fd5b5061205d85828601611d3f565b9150509250929050565b600060208284031215612078578081fd5b81356112c5816125f8565b600060208284031215612094578081fd5b81516112c5816125f8565b6000806000606084860312156120b3578081fd5b833567ffffffffffffffff8111156120c9578182fd5b8401601f810186136120d9578182fd5b6120e886823560208401611cc5565b9350506120f760208501611dd2565b9150604084013590509250925092565b600060208284031215612118578081fd5b5035919050565b60008060408385031215612131578182fd5b82359150611e2760208401611dd2565b6000815180845260208085019450808401835b8381101561217057815187529582019590820190600101612154565b509495945050505050565b60008151808452815b818110156121a057602081850181015186830182015201612184565b818111156121b15782602083870101525b50601f01601f19169290920160200192915050565b6001600160a01b0386811682528516602082015260a0604082018190526000906121f290830186612141565b82810360608401526122048186612141565b90508281036080840152612218818561217b565b98975050505050505050565b6001600160a01b03868116825285166020820152604081018490526060810183905260a06080820181905260009061225e9083018461217b565b979650505050505050565b60006020808301818452808551808352604092508286019150828160051b870101848801865b838110156122fc57888303603f19018552815180516001600160a01b031684528781015161ffff168885015286810151878501526060808201519085015260809081015160a0918501829052906122e88186018361217b565b96890196945050509086019060010161228f565b509098975050505050505050565b6020815260006112c56020830184612141565b6040815260006123306040830185612141565b82810360208401526123428185612141565b95945050505050565b6020815260006112c5602083018461217b565b60208082526028908201527f455243313135353a204552433131353552656365697665722072656a656374656040820152676420746f6b656e7360c01b606082015260800190565b60208082526025908201527f455243313135353a207472616e7366657220746f20746865207a65726f206164604082015264647265737360d81b606082015260800190565b6020808252602a908201527f455243313135353a20696e73756666696369656e742062616c616e636520666f60408201526939103a3930b739b332b960b11b606082015260800190565b600067ffffffffffffffff82111561244f5761244f612540565b5060051b60200190565b6000821982111561246c5761246c61252a565b500190565b600081600019048311821515161561248b5761248b61252a565b500290565b6000828210156124a2576124a261252a565b500390565b600181811c908216806124bb57607f821691505b602082108114156124dc57634e487b7160e01b600052602260045260246000fd5b50919050565b601f8201601f1916810167ffffffffffffffff8111828210171561250857612508612540565b6040525050565b60006000198214156125235761252361252a565b5060010190565b634e487b7160e01b600052601160045260246000fd5b634e487b7160e01b600052604160045260246000fd5b600060033d111561256b57600481823e5160e01c5b90565b600060443d101561257c5790565b6040516003193d81016004833e81513d67ffffffffffffffff81602484011181841117156125ac57505050505090565b82850191508151818111156125c45750505050505090565b843d87010160208285010111156125de5750505050505090565b6125ed602082860101876124e2565b509095945050505050565b6001600160e01b0319811681146112b657600080fdfea2646970667358221220554f983b61a6c0d2b03d6a702f887098b676b9e584dc2bebc507066a3cfda4dc64736f6c63430008040033",
  "linkReferences": {},
  "deployedLinkReferences": {}
}