{
  "_format": "hh-sol-artifact-1",
  "contractName": "FreeMarket",
  "sourceName": "contracts/FreeMarket.sol",
  "abi": [
    {
      "inputs": [],
      "stateMutability": "nonpayable",
      "type": "constructor"
    },
    {
      "anonymous": false,
      "inputs": [
        {
          "indexed": true,
          "internalType": "address",
          "name": "account",
          "type": "address"
        },
        {
          "indexed": true,
          "internalType": "address",
          "name": "operator",
          "type": "address"
        },
        {
          "indexed": false,
          "internalType": "bool",
          "name": "approved",
          "type": "bool"
        }
      ],
      "name": "ApprovalForAll",
      "type": "event"
    },
    {
      "anonymous": false,
      "inputs": [
        {
          "indexed": false,
          "internalType": "address",
          "name": "_seller",
          "type": "address"
        },
        {
          "indexed": false,
          "internalType": "uint16",
          "name": "_supply",
          "type": "uint16"
        },
        {
          "indexed": false,
          "internalType": "uint256",
          "name": "_price",
          "type": "uint256"
        },
        {
          "indexed": false,
          "internalType": "uint256",
          "name": "_merchandiseId",
          "type": "uint256"
        }
      ],
      "name": "MerchandiseAdded",
      "type": "event"
    },
    {
      "anonymous": false,
      "inputs": [
        {
          "indexed": true,
          "internalType": "address",
          "name": "previousOwner",
          "type": "address"
        },
        {
          "indexed": true,
          "internalType": "address",
          "name": "newOwner",
          "type": "address"
        }
      ],
      "name": "OwnershipTransferred",
      "type": "event"
    },
    {
      "anonymous": false,
      "inputs": [
        {
          "indexed": false,
          "internalType": "address",
          "name": "_seller",
          "type": "address"
        },
        {
          "indexed": false,
          "internalType": "address",
          "name": "_buyer",
          "type": "address"
        },
        {
          "indexed": false,
          "internalType": "uint16",
          "name": "_quantity",
          "type": "uint16"
        },
        {
          "indexed": false,
          "internalType": "uint256",
          "name": "_merchandiseId",
          "type": "uint256"
        }
      ],
      "name": "Transaction",
      "type": "event"
    },
    {
      "anonymous": false,
      "inputs": [
        {
          "indexed": true,
          "internalType": "address",
          "name": "operator",
          "type": "address"
        },
        {
          "indexed": true,
          "internalType": "address",
          "name": "from",
          "type": "address"
        },
        {
          "indexed": true,
          "internalType": "address",
          "name": "to",
          "type": "address"
        },
        {
          "indexed": false,
          "internalType": "uint256[]",
          "name": "ids",
          "type": "uint256[]"
        },
        {
          "indexed": false,
          "internalType": "uint256[]",
          "name": "values",
          "type": "uint256[]"
        }
      ],
      "name": "TransferBatch",
      "type": "event"
    },
    {
      "anonymous": false,
      "inputs": [
        {
          "indexed": true,
          "internalType": "address",
          "name": "operator",
          "type": "address"
        },
        {
          "indexed": true,
          "internalType": "address",
          "name": "from",
          "type": "address"
        },
        {
          "indexed": true,
          "internalType": "address",
          "name": "to",
          "type": "address"
        },
        {
          "indexed": false,
          "internalType": "uint256",
          "name": "id",
          "type": "uint256"
        },
        {
          "indexed": false,
          "internalType": "uint256",
          "name": "value",
          "type": "uint256"
        }
      ],
      "name": "TransferSingle",
      "type": "event"
    },
    {
      "anonymous": false,
      "inputs": [
        {
          "indexed": false,
          "internalType": "string",
          "name": "value",
          "type": "string"
        },
        {
          "indexed": true,
          "internalType": "uint256",
          "name": "id",
          "type": "uint256"
        }
      ],
      "name": "URI",
      "type": "event"
    },
    {
      "inputs": [
        {
          "internalType": "string",
          "name": "_merchandiseUri",
          "type": "string"
        },
        {
          "internalType": "uint16",
          "name": "_supply",
          "type": "uint16"
        },
        {
          "internalType": "uint256",
          "name": "_price",
          "type": "uint256"
        }
      ],
      "name": "addMerchandise",
      "outputs": [
        {
          "internalType": "uint256",
          "name": "",
          "type": "uint256"
        }
      ],
      "stateMutability": "nonpayable",
      "type": "function"
    },
    {
      "inputs": [
        {
          "internalType": "address",
          "name": "account",
          "type": "address"
        },
        {
          "internalType": "uint256",
          "name": "id",
          "type": "uint256"
        }
      ],
      "name": "balanceOf",
      "outputs": [
        {
          "internalType": "uint256",
          "name": "",
          "type": "uint256"
        }
      ],
      "stateMutability": "view",
      "type": "function"
    },
    {
      "inputs": [
        {
          "internalType": "address[]",
          "name": "accounts",
          "type": "address[]"
        },
        {
          "internalType": "uint256[]",
          "name": "ids",
          "type": "uint256[]"
        }
      ],
      "name": "balanceOfBatch",
      "outputs": [
        {
          "internalType": "uint256[]",
          "name": "",
          "type": "uint256[]"
        }
      ],
      "stateMutability": "view",
      "type": "function"
    },
    {
      "inputs": [],
      "name": "fetchMerchandiseAll",
      "outputs": [
        {
          "components": [
            {
              "internalType": "address",
              "name": "seller",
              "type": "address"
            },
            {
              "internalType": "uint16",
              "name": "supply",
              "type": "uint16"
            },
            {
              "internalType": "uint256",
              "name": "price",
              "type": "uint256"
            },
            {
              "internalType": "uint256",
              "name": "merchandiseId",
              "type": "uint256"
            },
            {
              "internalType": "string",
              "name": "uri",
              "type": "string"
            }
          ],
          "internalType": "struct FreeMarket.Merchandise[]",
          "name": "",
          "type": "tuple[]"
        }
      ],
      "stateMutability": "view",
      "type": "function"
    },
    {
      "inputs": [
        {
          "internalType": "uint256",
          "name": "_merchandiseId",
          "type": "uint256"
        }
      ],
      "name": "fetchMerchandiseById",
      "outputs": [
        {
          "components": [
            {
              "internalType": "address",
              "name": "seller",
              "type": "address"
            },
            {
              "internalType": "uint16",
              "name": "supply",
              "type": "uint16"
            },
            {
              "internalType": "uint256",
              "name": "price",
              "type": "uint256"
            },
            {
              "internalType": "uint256",
              "name": "merchandiseId",
              "type": "uint256"
            },
            {
              "internalType": "string",
              "name": "uri",
              "type": "string"
            }
          ],
          "internalType": "struct FreeMarket.Merchandise",
          "name": "",
          "type": "tuple"
        }
      ],
      "stateMutability": "view",
      "type": "function"
    },
    {
      "inputs": [
        {
          "internalType": "address",
          "name": "_seller",
          "type": "address"
        }
      ],
      "name": "fetchMerchandiseFrom",
      "outputs": [
        {
          "components": [
            {
              "internalType": "address",
              "name": "seller",
              "type": "address"
            },
            {
              "internalType": "uint16",
              "name": "supply",
              "type": "uint16"
            },
            {
              "internalType": "uint256",
              "name": "price",
              "type": "uint256"
            },
            {
              "internalType": "uint256",
              "name": "merchandiseId",
              "type": "uint256"
            },
            {
              "internalType": "string",
              "name": "uri",
              "type": "string"
            }
          ],
          "internalType": "struct FreeMarket.Merchandise[]",
          "name": "",
          "type": "tuple[]"
        }
      ],
      "stateMutability": "view",
      "type": "function"
    },
    {
      "inputs": [
        {
          "internalType": "address",
          "name": "_address",
          "type": "address"
        }
      ],
      "name": "fetchReceiptsFrom",
      "outputs": [
        {
          "internalType": "uint256[]",
          "name": "",
          "type": "uint256[]"
        }
      ],
      "stateMutability": "view",
      "type": "function"
    },
    {
      "inputs": [
        {
          "internalType": "address",
          "name": "account",
          "type": "address"
        },
        {
          "internalType": "address",
          "name": "operator",
          "type": "address"
        }
      ],
      "name": "isApprovedForAll",
      "outputs": [
        {
          "internalType": "bool",
          "name": "",
          "type": "bool"
        }
      ],
      "stateMutability": "view",
      "type": "function"
    },
    {
      "inputs": [
        {
          "internalType": "address",
          "name": "",
          "type": "address"
        },
        {
          "internalType": "address",
          "name": "",
          "type": "address"
        },
        {
          "internalType": "uint256[]",
          "name": "",
          "type": "uint256[]"
        },
        {
          "internalType": "uint256[]",
          "name": "",
          "type": "uint256[]"
        },
        {
          "internalType": "bytes",
          "name": "",
          "type": "bytes"
        }
      ],
      "name": "onERC1155BatchReceived",
      "outputs": [
        {
          "internalType": "bytes4",
          "name": "",
          "type": "bytes4"
        }
      ],
      "stateMutability": "nonpayable",
      "type": "function"
    },
    {
      "inputs": [
        {
          "internalType": "address",
          "name": "",
          "type": "address"
        },
        {
          "internalType": "address",
          "name": "",
          "type": "address"
        },
        {
          "internalType": "uint256",
          "name": "",
          "type": "uint256"
        },
        {
          "internalType": "uint256",
          "name": "",
          "type": "uint256"
        },
        {
          "internalType": "bytes",
          "name": "",
          "type": "bytes"
        }
      ],
      "name": "onERC1155Received",
      "outputs": [
        {
          "internalType": "bytes4",
          "name": "",
          "type": "bytes4"
        }
      ],
      "stateMutability": "nonpayable",
      "type": "function"
    },
    {
      "inputs": [],
      "name": "owner",
      "outputs": [
        {
          "internalType": "address",
          "name": "",
          "type": "address"
        }
      ],
      "stateMutability": "view",
      "type": "function"
    },
    {
      "inputs": [
        {
          "internalType": "uint256",
          "name": "_merchandiseId",
          "type": "uint256"
        }
      ],
      "name": "removeMerchandise",
      "outputs": [],
      "stateMutability": "nonpayable",
      "type": "function"
    },
    {
      "inputs": [],
      "name": "renounceOwnership",
      "outputs": [],
      "stateMutability": "nonpayable",
      "type": "function"
    },
    {
      "inputs": [
        {
          "internalType": "address",
          "name": "from",
          "type": "address"
        },
        {
          "internalType": "address",
          "name": "to",
          "type": "address"
        },
        {
          "internalType": "uint256[]",
          "name": "ids",
          "type": "uint256[]"
        },
        {
          "internalType": "uint256[]",
          "name": "amounts",
          "type": "uint256[]"
        },
        {
          "internalType": "bytes",
          "name": "data",
          "type": "bytes"
        }
      ],
      "name": "safeBatchTransferFrom",
      "outputs": [],
      "stateMutability": "nonpayable",
      "type": "function"
    },
    {
      "inputs": [
        {
          "internalType": "address",
          "name": "from",
          "type": "address"
        },
        {
          "internalType": "address",
          "name": "to",
          "type": "address"
        },
        {
          "internalType": "uint256",
          "name": "id",
          "type": "uint256"
        },
        {
          "internalType": "uint256",
          "name": "amount",
          "type": "uint256"
        },
        {
          "internalType": "bytes",
          "name": "data",
          "type": "bytes"
        }
      ],
      "name": "safeTransferFrom",
      "outputs": [],
      "stateMutability": "nonpayable",
      "type": "function"
    },
    {
      "inputs": [
        {
          "internalType": "address",
          "name": "operator",
          "type": "address"
        },
        {
          "internalType": "bool",
          "name": "approved",
          "type": "bool"
        }
      ],
      "name": "setApprovalForAll",
      "outputs": [],
      "stateMutability": "nonpayable",
      "type": "function"
    },
    {
      "inputs": [
        {
          "internalType": "bytes4",
          "name": "interfaceId",
          "type": "bytes4"
        }
      ],
      "name": "supportsInterface",
      "outputs": [
        {
          "internalType": "bool",
          "name": "",
          "type": "bool"
        }
      ],
      "stateMutability": "view",
      "type": "function"
    },
    {
      "inputs": [
        {
          "internalType": "uint256",
          "name": "_merchandiseId",
          "type": "uint256"
        },
        {
          "internalType": "uint16",
          "name": "_quantity",
          "type": "uint16"
        }
      ],
      "name": "transactMerchandise",
      "outputs": [],
      "stateMutability": "payable",
      "type": "function"
    },
    {
      "inputs": [
        {
          "internalType": "address",
          "name": "newOwner",
          "type": "address"
        }
      ],
      "name": "transferOwnership",
      "outputs": [],
      "stateMutability": "nonpayable",
      "type": "function"
    },
    {
      "inputs": [
        {
          "internalType": "uint256",
          "name": "_merchandiseId",
          "type": "uint256"
        }
      ],
      "name": "uri",
      "outputs": [
        {
          "internalType": "string",
          "name": "",
          "type": "string"
        }
      ],
      "stateMutability": "view",
      "type": "function"
    }
  ],
  "bytecode": "0x60806040523480156200001157600080fd5b506040805160208101909152600081526200002c8162000043565b5062000038336200005c565b600160045562000191565b805162000058906002906020840190620000ae565b5050565b600380546001600160a01b038381166001600160a01b0319831681179093556040519116919082907f8be0079c531659141344cd1fd0a4f28419497f9722a3daafe3b4186f6b6457e090600090a35050565b828054620000bc9062000154565b90600052602060002090601f016020900481019282620000e057600085556200012b565b82601f10620000fb57805160ff19168380011785556200012b565b828001600101855582156200012b579182015b828111156200012b5782518255916020019190600101906200010e565b50620001399291506200013d565b5090565b5b808211156200013957600081556001016200013e565b600181811c908216806200016957607f821691505b602082108114156200018b57634e487b7160e01b600052602260045260246000fd5b50919050565b612af280620001a16000396000f3fe60806040526004361061011e5760003560e01c8063715018a6116100a0578063e985e9c511610064578063e985e9c514610366578063eb8d7588146103af578063f23a6e61146103cf578063f242432a146103fb578063f2fde38b1461041b57600080fd5b8063715018a6146102a45780637c30da32146102b95780638da5cb5b146102d9578063a22cb46514610301578063bc197c811461032157600080fd5b80632eb2c2d6116100e75780632eb2c2d6146101f5578063453d484f1461021757806348419f17146102445780634e1273f4146102575780634f85aa8f1461028457600080fd5b8062fdd58e14610123578063019e745c1461015657806301e90edd1461018357806301ffc9a7146101985780630e89341c146101c8575b600080fd5b34801561012f57600080fd5b5061014361013e36600461240b565b61043b565b6040519081526020015b60405180910390f35b34801561016257600080fd5b5061017661017136600461227e565b6104d2565b60405161014d9190612750565b34801561018f57600080fd5b50610176610759565b3480156101a457600080fd5b506101b86101b33660046124fe565b61097f565b604051901515815260200161014d565b3480156101d457600080fd5b506101e86101e336600461259d565b610990565b60405161014d91906127e9565b34801561020157600080fd5b506102156102103660046122ca565b610a35565b005b34801561022357600080fd5b5061023761023236600461259d565b610acc565b60405161014d91906128d3565b6102156102523660046125b5565b610bc5565b34801561026357600080fd5b50610277610272366004612434565b610e5c565b60405161014d91906127b1565b34801561029057600080fd5b5061014361029f366004612536565b610fbd565b3480156102b057600080fd5b506102156110eb565b3480156102c557600080fd5b506102156102d436600461259d565b611151565b3480156102e557600080fd5b506003546040516001600160a01b03909116815260200161014d565b34801561030d57600080fd5b5061021561031c3660046123d1565b611326565b34801561032d57600080fd5b5061034d61033c3660046122ca565b63bc197c8160e01b95945050505050565b6040516001600160e01b0319909116815260200161014d565b34801561037257600080fd5b506101b8610381366004612298565b6001600160a01b03918216600090815260016020908152604080832093909416825291909152205460ff1690565b3480156103bb57600080fd5b506102776103ca36600461227e565b611331565b3480156103db57600080fd5b5061034d6103ea36600461236f565b63f23a6e6160e01b95945050505050565b34801561040757600080fd5b5061021561041636600461236f565b611488565b34801561042757600080fd5b5061021561043636600461227e565b61150f565b60006001600160a01b0383166104ac5760405162461bcd60e51b815260206004820152602b60248201527f455243313135353a2062616c616e636520717565727920666f7220746865207a60448201526a65726f206164647265737360a81b60648201526084015b60405180910390fd5b506000908152602081815260408083206001600160a01b03949094168352929052205490565b606060006104df60055490565b905060008060005b83811015610548576001600160a01b03861660076000610508846001612909565b81526020810191909152604001600020546001600160a01b03161415610536576105338360016115da565b92505b80610540816129be565b9150506104e7565b506000826001600160401b0381111561057157634e487b7160e01b600052604160045260246000fd5b6040519080825280602002602001820160405280156105aa57816020015b610597612055565b81526020019060019003908161058f5790505b50905060005b8481101561074f576001600160a01b038716600760006105d1846001612909565b81526020810191909152604001600020546001600160a01b0316141561073d576000600781610601846001612909565b8152602080820192909252604090810160009081206002908101548083526007855291839020835160a08101855281546001600160a01b0381168252600160a01b900461ffff16958101959095526001810154938501939093528201546060840152600382018054919450919291839160808401919061068090612957565b80601f01602080910402602001604051908101604052809291908181526020018280546106ac90612957565b80156106f95780601f106106ce576101008083540402835291602001916106f9565b820191906000526020600020905b8154815290600101906020018083116106dc57829003601f168201915b50505050508152505084868151811061072257634e487b7160e01b600052603260045260246000fd5b60200260200101819052506107388560016115da565b945050505b80610747816129be565b9150506105b0565b5095945050505050565b6060600061076660055490565b9050600061077e61077660055490565b6006546115ed565b9050600080826001600160401b038111156107a957634e487b7160e01b600052604160045260246000fd5b6040519080825280602002602001820160405280156107e257816020015b6107cf612055565b8152602001906001900390816107c75790505b50905060005b8481101561097657600760006107ff836001612909565b815260200190815260200160002060020154600014610964576000600781610828846001612909565b8152602080820192909252604090810160009081206002908101548083526007855291839020835160a08101855281546001600160a01b0381168252600160a01b900461ffff1695810195909552600181015493850193909352820154606084015260038201805491945091929183916080840191906108a790612957565b80601f01602080910402602001604051908101604052809291908181526020018280546108d390612957565b80156109205780601f106108f557610100808354040283529160200191610920565b820191906000526020600020905b81548152906001019060200180831161090357829003601f168201915b50505050508152505084868151811061094957634e487b7160e01b600052603260045260246000fd5b602002602001018190525061095f8560016115da565b945050505b8061096e816129be565b9150506107e8565b50949350505050565b600061098a826115f9565b92915050565b60008181526007602052604090206003018054606091906109b090612957565b80601f01602080910402602001604051908101604052809291908181526020018280546109dc90612957565b8015610a295780601f106109fe57610100808354040283529160200191610a29565b820191906000526020600020905b815481529060010190602001808311610a0c57829003601f168201915b50505050509050919050565b6001600160a01b038516331480610a515750610a518533610381565b610ab85760405162461bcd60e51b815260206004820152603260248201527f455243313135353a207472616e736665722063616c6c6572206973206e6f74206044820152711bdddb995c881b9bdc88185c1c1c9bdd995960721b60648201526084016104a3565b610ac5858585858561161e565b5050505050565b610ad4612055565b600082815260076020908152604091829020825160a08101845281546001600160a01b0381168252600160a01b900461ffff169281019290925260018101549282019290925260028201546060820152600382018054919291608084019190610b3c90612957565b80601f0160208091040260200160405190810160405280929190818152602001828054610b6890612957565b8015610bb55780601f10610b8a57610100808354040283529160200191610bb5565b820191906000526020600020905b815481529060010190602001808311610b9857829003601f168201915b5050505050815250509050919050565b60026004541415610c185760405162461bcd60e51b815260206004820152601f60248201527f5265656e7472616e637947756172643a207265656e7472616e742063616c6c0060448201526064016104a3565b600260045560008281526007602052604090205461ffff808316600160a01b909204161015610c7f5760405162461bcd60e51b8152602060048201526013602482015272496e73756666696369656e7420737570706c7960681b60448201526064016104a3565b600082815260076020526040902060010154610ca09061ffff831690612921565b3414610ce65760405162461bcd60e51b8152602060048201526015602482015274496e76616c6964207061796d656e742076616c756560581b60448201526064016104a3565b6000828152600760205260408082205490516001600160a01b039091169034908381818185875af1925050503d8060008114610d3e576040519150601f19603f3d011682016040523d82523d6000602084013e610d43565b606091505b5050905080610d845760405162461bcd60e51b815260206004820152600d60248201526c2830bcb6b2b73a1032b93937b960991b60448201526064016104a3565b610da43033858561ffff1660405180602001604052806000815250611817565b600083815260076020526040902054610dcc9061ffff600160a01b90910481169084166115ed565b600084815260076020908152604091829020805461ffff60a01b198116600160a01b61ffff9687160290811790925583516001600160a01b0391821691909216178152339181019190915291841690820152606081018490527f2cdce83894d8c0d45eb4c4cab2696f20b4768abc89e01b6d050beaa4f6fe7aef9060800160405180910390a15050600160045550565b60608151835114610ec15760405162461bcd60e51b815260206004820152602960248201527f455243313135353a206163636f756e747320616e6420696473206c656e677468604482015268040dad2e6dac2e8c6d60bb1b60648201526084016104a3565b600083516001600160401b03811115610eea57634e487b7160e01b600052604160045260246000fd5b604051908082528060200260200182016040528015610f13578160200160208202803683370190505b50905060005b8451811015610fb557610f7a858281518110610f4557634e487b7160e01b600052603260045260246000fd5b6020026020010151858381518110610f6d57634e487b7160e01b600052603260045260246000fd5b602002602001015161043b565b828281518110610f9a57634e487b7160e01b600052603260045260246000fd5b6020908102919091010152610fae816129be565b9050610f19565b509392505050565b6000610fcd600580546001019055565b6000610fd860055490565b9050610ff930828661ffff166040518060200160405280600081525061193d565b6110038186611a3e565b6040805160a08101825233815261ffff808716602080840191825283850188815260608501878152608086018c815260008981526007855297909720865181549551909616600160a01b026001600160b01b03199095166001600160a01b0396909616959095179390931784555160018401559051600283015592518051929391926110959260038501920190612091565b50506040805133815261ffff87166020820152908101859052606081018390527f3059b02ad9c03c6c61febd70c3e2fd8885a3b71c84ac4a288fb923c725c8a4c1915060800160405180910390a1949350505050565b6003546001600160a01b031633146111455760405162461bcd60e51b815260206004820181905260248201527f4f776e61626c653a2063616c6c6572206973206e6f7420746865206f776e657260448201526064016104a3565b61114f6000611aca565b565b600081815260076020908152604091829020825160a08101845281546001600160a01b0381168252600160a01b900461ffff1692810192909252600181015492820192909252600282015460608201526003820180549192916080840191906111b990612957565b80601f01602080910402602001604051908101604052809291908181526020018280546111e590612957565b80156112325780601f1061120757610100808354040283529160200191611232565b820191906000526020600020905b81548152906001019060200180831161121557829003601f168201915b50505050508152505080600001516001600160a01b0316336001600160a01b0316146112c65760405162461bcd60e51b815260206004820152603960248201527f4f6e6c7920746865206f776e6572206f6620746865206d65726368616e64697360448201527f652063616e20706572666f726d207468697320616374696f6e0000000000000060648201526084016104a3565b6112da30836112d5308661043b565b611b1c565b600082815260076020526040812080546001600160b01b03191681556001810182905560028101829055906113126003830182612115565b5050611322600680546001019055565b5050565b611322338383611c96565b6060600061133e60055490565b90506000816001600160401b0381111561136857634e487b7160e01b600052604160045260246000fd5b604051908082528060200260200182016040528015611391578160200160208202803683370190505b5090506000826001600160401b038111156113bc57634e487b7160e01b600052604160045260246000fd5b6040519080825280602002602001820160405280156113e5578160200160208202803683370190505b50905060005b83811015611474578583828151811061141457634e487b7160e01b600052603260045260246000fd5b6001600160a01b0390921660209283029190910190910152611437816001612909565b82828151811061145757634e487b7160e01b600052603260045260246000fd5b60209081029190910101528061146c816129be565b9150506113eb565b5061147f8282610e5c565b95945050505050565b6001600160a01b0385163314806114a457506114a48533610381565b6115025760405162461bcd60e51b815260206004820152602960248201527f455243313135353a2063616c6c6572206973206e6f74206f776e6572206e6f7260448201526808185c1c1c9bdd995960ba1b60648201526084016104a3565b610ac58585858585611817565b6003546001600160a01b031633146115695760405162461bcd60e51b815260206004820181905260248201527f4f776e61626c653a2063616c6c6572206973206e6f7420746865206f776e657260448201526064016104a3565b6001600160a01b0381166115ce5760405162461bcd60e51b815260206004820152602660248201527f4f776e61626c653a206e6577206f776e657220697320746865207a65726f206160448201526564647265737360d01b60648201526084016104a3565b6115d781611aca565b50565b60006115e68284612909565b9392505050565b60006115e68284612940565b60006001600160e01b03198216630271189760e51b148061098a575061098a82611d77565b81518351146116805760405162461bcd60e51b815260206004820152602860248201527f455243313135353a2069647320616e6420616d6f756e7473206c656e677468206044820152670dad2e6dac2e8c6d60c31b60648201526084016104a3565b6001600160a01b0384166116a65760405162461bcd60e51b81526004016104a390612844565b3360005b84518110156117a95760008582815181106116d557634e487b7160e01b600052603260045260246000fd5b60200260200101519050600085838151811061170157634e487b7160e01b600052603260045260246000fd5b602090810291909101810151600084815280835260408082206001600160a01b038e1683529093529190912054909150818110156117515760405162461bcd60e51b81526004016104a390612889565b6000838152602081815260408083206001600160a01b038e8116855292528083208585039055908b1682528120805484929061178e908490612909565b92505081905550505050806117a2906129be565b90506116aa565b50846001600160a01b0316866001600160a01b0316826001600160a01b03167f4a39dc06d4c0dbc64b70af90fd698a233a518aa5d07e595d983b8c0526c8f7fb87876040516117f99291906127c4565b60405180910390a461180f818787878787611dc7565b505050505050565b6001600160a01b03841661183d5760405162461bcd60e51b81526004016104a390612844565b3361185681878761184d88611f32565b610ac588611f32565b6000848152602081815260408083206001600160a01b038a168452909152902054838110156118975760405162461bcd60e51b81526004016104a390612889565b6000858152602081815260408083206001600160a01b038b81168552925280832087850390559088168252812080548692906118d4908490612909565b909155505060408051868152602081018690526001600160a01b03808916928a821692918616917fc3d58168c5ae7397731d063d5bbf3d657854427343f4c083240f7aacaa2d0f62910160405180910390a4611934828888888888611f8b565b50505050505050565b6001600160a01b03841661199d5760405162461bcd60e51b815260206004820152602160248201527f455243313135353a206d696e7420746f20746865207a65726f206164647265736044820152607360f81b60648201526084016104a3565b336119ae8160008761184d88611f32565b6000848152602081815260408083206001600160a01b0389168452909152812080548592906119de908490612909565b909155505060408051858152602081018590526001600160a01b0380881692600092918516917fc3d58168c5ae7397731d063d5bbf3d657854427343f4c083240f7aacaa2d0f62910160405180910390a4610ac581600087878787611f8b565b60008281526007602052604090206003018054611a5a90612957565b159050611aa05760405162461bcd60e51b815260206004820152601460248201527343616e6e6f74207365742075726920747769636560601b60448201526064016104a3565b60008281526007602090815260409091208251611ac592600390920191840190612091565b505050565b600380546001600160a01b038381166001600160a01b0319831681179093556040519116919082907f8be0079c531659141344cd1fd0a4f28419497f9722a3daafe3b4186f6b6457e090600090a35050565b6001600160a01b038316611b7e5760405162461bcd60e51b815260206004820152602360248201527f455243313135353a206275726e2066726f6d20746865207a65726f206164647260448201526265737360e81b60648201526084016104a3565b33611bae81856000611b8f87611f32565b611b9887611f32565b5050604080516020810190915260009052505050565b6000838152602081815260408083206001600160a01b038816845290915290205482811015611c2b5760405162461bcd60e51b8152602060048201526024808201527f455243313135353a206275726e20616d6f756e7420657863656564732062616c604482015263616e636560e01b60648201526084016104a3565b6000848152602081815260408083206001600160a01b03898116808652918452828520888703905582518981529384018890529092908616917fc3d58168c5ae7397731d063d5bbf3d657854427343f4c083240f7aacaa2d0f62910160405180910390a45050505050565b816001600160a01b0316836001600160a01b03161415611d0a5760405162461bcd60e51b815260206004820152602960248201527f455243313135353a2073657474696e6720617070726f76616c20737461747573604482015268103337b91039b2b63360b91b60648201526084016104a3565b6001600160a01b03838116600081815260016020908152604080832094871680845294825291829020805460ff191686151590811790915591519182527f17307eab39ab6107e8899845ad3d59bd9653f200f220920489ca2b5937696c31910160405180910390a3505050565b60006001600160e01b03198216636cdb3d1360e11b1480611da857506001600160e01b031982166303a24d0760e21b145b8061098a57506301ffc9a760e01b6001600160e01b031983161461098a565b6001600160a01b0384163b1561180f5760405163bc197c8160e01b81526001600160a01b0385169063bc197c8190611e0b90899089908890889088906004016126ad565b602060405180830381600087803b158015611e2557600080fd5b505af1925050508015611e55575060408051601f3d908101601f19168201909252611e529181019061251a565b60015b611f0257611e61612a05565b806308c379a01415611e9b5750611e76612a1d565b80611e815750611e9d565b8060405162461bcd60e51b81526004016104a391906127e9565b505b60405162461bcd60e51b815260206004820152603460248201527f455243313135353a207472616e7366657220746f206e6f6e20455243313135356044820152732932b1b2b4bb32b91034b6b83632b6b2b73a32b960611b60648201526084016104a3565b6001600160e01b0319811663bc197c8160e01b146119345760405162461bcd60e51b81526004016104a3906127fc565b60408051600180825281830190925260609160009190602080830190803683370190505090508281600081518110611f7a57634e487b7160e01b600052603260045260246000fd5b602090810291909101015292915050565b6001600160a01b0384163b1561180f5760405163f23a6e6160e01b81526001600160a01b0385169063f23a6e6190611fcf908990899088908890889060040161270b565b602060405180830381600087803b158015611fe957600080fd5b505af1925050508015612019575060408051601f3d908101601f191682019092526120169181019061251a565b60015b61202557611e61612a05565b6001600160e01b0319811663f23a6e6160e01b146119345760405162461bcd60e51b81526004016104a3906127fc565b6040518060a0016040528060006001600160a01b03168152602001600061ffff1681526020016000815260200160008152602001606081525090565b82805461209d90612957565b90600052602060002090601f0160209004810192826120bf5760008555612105565b82601f106120d857805160ff1916838001178555612105565b82800160010185558215612105579182015b828111156121055782518255916020019190600101906120ea565b5061211192915061214b565b5090565b50805461212190612957565b6000825580601f10612131575050565b601f0160209004906000526020600020908101906115d791905b5b80821115612111576000815560010161214c565b60006001600160401b03831115612179576121796129ef565b604051612190601f8501601f191660200182612992565b8091508381528484840111156121a557600080fd5b83836020830137600060208583010152509392505050565b80356001600160a01b03811681146121d457600080fd5b919050565b600082601f8301126121e9578081fd5b813560206121f6826128e6565b6040516122038282612992565b8381528281019150858301600585901b87018401881015612222578586fd5b855b8581101561224057813584529284019290840190600101612224565b5090979650505050505050565b600082601f83011261225d578081fd5b6115e683833560208501612160565b803561ffff811681146121d457600080fd5b60006020828403121561228f578081fd5b6115e6826121bd565b600080604083850312156122aa578081fd5b6122b3836121bd565b91506122c1602084016121bd565b90509250929050565b600080600080600060a086880312156122e1578081fd5b6122ea866121bd565b94506122f8602087016121bd565b935060408601356001600160401b0380821115612313578283fd5b61231f89838a016121d9565b94506060880135915080821115612334578283fd5b61234089838a016121d9565b93506080880135915080821115612355578283fd5b506123628882890161224d565b9150509295509295909350565b600080600080600060a08688031215612386578081fd5b61238f866121bd565b945061239d602087016121bd565b9350604086013592506060860135915060808601356001600160401b038111156123c5578182fd5b6123628882890161224d565b600080604083850312156123e3578182fd5b6123ec836121bd565b915060208301358015158114612400578182fd5b809150509250929050565b6000806040838503121561241d578182fd5b612426836121bd565b946020939093013593505050565b60008060408385031215612446578182fd5b82356001600160401b038082111561245c578384fd5b818501915085601f83011261246f578384fd5b8135602061247c826128e6565b6040516124898282612992565b8381528281019150858301600585901b870184018b10156124a8578889fd5b8896505b848710156124d1576124bd816121bd565b8352600196909601959183019183016124ac565b50965050860135925050808211156124e7578283fd5b506124f4858286016121d9565b9150509250929050565b60006020828403121561250f578081fd5b81356115e681612aa6565b60006020828403121561252b578081fd5b81516115e681612aa6565b60008060006060848603121561254a578081fd5b83356001600160401b0381111561255f578182fd5b8401601f8101861361256f578182fd5b61257e86823560208401612160565b93505061258d6020850161226c565b9150604084013590509250925092565b6000602082840312156125ae578081fd5b5035919050565b600080604083850312156125c7578182fd5b823591506122c16020840161226c565b6000815180845260208085019450808401835b83811015612606578151875295820195908201906001016125ea565b509495945050505050565b60008151808452815b818110156126365760208185018101518683018201520161261a565b818111156126475782602083870101525b50601f01601f19169290920160200192915050565b60018060a01b03815116825261ffff602082015116602083015260408101516040830152606081015160608301526000608082015160a060808501526126a560a0850182612611565b949350505050565b6001600160a01b0386811682528516602082015260a0604082018190526000906126d9908301866125d7565b82810360608401526126eb81866125d7565b905082810360808401526126ff8185612611565b98975050505050505050565b6001600160a01b03868116825285166020820152604081018490526060810183905260a06080820181905260009061274590830184612611565b979650505050505050565b6000602080830181845280855180835260408601915060408160051b8701019250838701855b828110156127a457603f1988860301845261279285835161265c565b94509285019290850190600101612776565b5092979650505050505050565b6020815260006115e660208301846125d7565b6040815260006127d760408301856125d7565b828103602084015261147f81856125d7565b6020815260006115e66020830184612611565b60208082526028908201527f455243313135353a204552433131353552656365697665722072656a656374656040820152676420746f6b656e7360c01b606082015260800190565b60208082526025908201527f455243313135353a207472616e7366657220746f20746865207a65726f206164604082015264647265737360d81b606082015260800190565b6020808252602a908201527f455243313135353a20696e73756666696369656e742062616c616e636520666f60408201526939103a3930b739b332b960b11b606082015260800190565b6020815260006115e6602083018461265c565b60006001600160401b038211156128ff576128ff6129ef565b5060051b60200190565b6000821982111561291c5761291c6129d9565b500190565b600081600019048311821515161561293b5761293b6129d9565b500290565b600082821015612952576129526129d9565b500390565b600181811c9082168061296b57607f821691505b6020821081141561298c57634e487b7160e01b600052602260045260246000fd5b50919050565b601f8201601f191681016001600160401b03811182821017156129b7576129b76129ef565b6040525050565b60006000198214156129d2576129d26129d9565b5060010190565b634e487b7160e01b600052601160045260246000fd5b634e487b7160e01b600052604160045260246000fd5b600060033d1115612a1a57600481823e5160e01c5b90565b600060443d1015612a2b5790565b6040516003193d81016004833e81513d6001600160401b038160248401118184111715612a5a57505050505090565b8285019150815181811115612a725750505050505090565b843d8701016020828501011115612a8c5750505050505090565b612a9b60208286010187612992565b509095945050505050565b6001600160e01b0319811681146115d757600080fdfea2646970667358221220d2901d88c6fe702fcc9b31147c5c0f06c79e138b6994c99eb962a602da4e76d864736f6c63430008040033",
  "linkReferences": {},
  "deployedLinkReferences": {}
}